:100179000000F922F981F9E1FA36FA8CFAD8FB2262
:10018900FB69FBAAFBE9FC23FC5BFC8FFCC1FCEFD0
:10019900FD1BFD44FD77FD91FDB5FDD5FDF4FE1177
:1001A900FE2FFE50FE60FE78FE8DFEA1FEB5FEC854
:1001B900FEDAFEEBFEFBFF09FF1700040004000452
:1001C900160218021906180219041D04180C110246
:1001D90011021606140216041904140C110412064D
:1001E9001102120419041108000219021902190254
:1001F900180613021304180418080004160218023A
:100209001906180219041D04180C11021102160608
:10021900140216041904140C0F0211021204190213
:10022900180419061B021B021D02190A19021802D9
:100239001602160218041504160C19021B021D06D3
:100249001B021D0420041B0C1402140219061802B7
:1002590019041D041D1016021802190418041B02A2
:100269001B021906140A1E041D041D0419041D0C81
:100279001D042208200420041D021B021908000283
:1002890019021B0419021B021B0420041D0C1D0466
:10029900220820081D021B021908000219021B046A
:1002A90019021B061804160C0004FF3F065B4F6673
:0602B9006D7D077F6F0060
:10062800014200013C00014300C102022B0000020C
:100638002D0000043E000000000426000000010117
:100648003D01043801020408012502012F00083089
:100658000000000A0A0A0A02012A000121000122F8
:0B06680000012300C100C101012400BB
:1006E60012049F8F298E288D278C261207651207E4
:1006F6004D120510E52A60FCC2AF152AD2AF1207CB
:0C070600121206741202BF12041880E8E0
:10049F00E4FBF50BF50AF509F508EB9001C393F4AE
:1004AF00603AEBA393FF7E007C007D7D12014CE54B
:1004BF000B2FF50BE50A3EF50AE5093DF509E508B1
:1004CF003CF508E50B2405F50BE4350AF50AE43590
:1004DF0009F509E43508F5080B0B80BEE4FFFEFDB6
:1004EF00FCAB0BAA0AA909A808C312013B70097536
:1004FF000B01F50AF509F508AF0BAE0AAD09AC080B
:01050F0022C9
:10051000E53C9001C393B4FF15754303E4F542C273
:100520008C85294185284085273F85263E22AF3C82
:10053000053CEF9001C393FFAE3C053CEE938F4228
:1005400075F07DA485F02BF52C752D00752E0575A5
:100550004301200221E542601DAF42EF25E02479EE
:10056000F582E43401F583E493FE740193AC068CC8
:080570008CF58AD28C22C28CAA
:010578002260
:1002BF0030020302038BE5436403700302038BE5F3
:1002CF0025252FF52FE52FC39402500302038B151D
:1002DF002F152FE5437003020385E5436401704A30
:1002EF00D3E52C9400E52B94004032E52C152C70AF
:1002FF0002152BAF29AE28AD27AC26AB41AA40A9DA
:10030F003FA83E12013B5015E5412401F541E4356C
:10031F0040F540E4353FF53FE4353EF53EE52C45ED
:10032F002B70A2C28C754302809BE54364027095CB
:10033F00D3E52E9400E52D94004032E52E152E7056
:10034F0002152DAF29AE28AD27AC26AB41AA40A987
:10035F003FA83E12013B5015E5412401F541E4351C
:10036F0040F540E4353FF53FE4353EF53EE52E459B
:0D037F002D60030202D41205100202D422E8
:1006B700B202300203C28C22E54364017020E54296
:1006C700601CAF42EF25E02479F582E43401F5831D
:0E06D700E493FE740193AC068C8CF58AD28CF1
:0106E50022F2
:10077C00053DE53DC394044003E4F53D7438253D47
:05078C00F8E6F525224E
:100674000521E521C394054039E4F52120B114E5B1
:1006840022940450040522800F20000CD20012068C
:10069400B78005E4F522C20020B012E523C3940418
:1006A400500305232220010AD20102077CE4F5232A
:0206B400C20181
:0106B6002221
:10041800E543B403047F648051E47B02FAF9F8AF42
:1004280029AE28AD27AC261200A9C004C005C00615
:10043800C007E47F64FEFDFCAB41AA40A93FA83E8B
:1004480012001ED003D002D001D000EF2BFFEE3AED
:10045800FEED39FDEC38FCAB29AA28A927A82612FD
:1004680000A9EFD3946440027F64EF75F06484F5CB
:1004780030EF75F00A8475F00A8485F031EF75F075
:100488000A8485F03275330A75340A75350A75366B
:060498000AE53D04F53702
:01049E00223B
:10071200E4F580E52404FF12057974302524F8E617
:100722009002B493F5800524E524C394084003E4C1
:02073200F524AC
:0107340022A2
:03000B000205D219
:1005D200C0E0C083C082C0D075D000C007AF42EF78
:1005E20025E02479F582E43401F5837401937002E5
:1005F200E4936027AF42EF25E02479F582E43401E9
:10060200F583740193F58AAF42EF25E02479F582F0
:10061200E43401F583E493F58CB2A5D007D0D0D0B1
:0606220082D083D0E0321B
:03001B00020735A4
:10073500C0E0C0D0758DFC758B66E52AC394C850A2
:0807450002052AD0D0D0E032F9
:100765005389F0438901758A66758CFCC28DD28CDC
:07077500D2A9D2AFC2B922E4
:10074D00538EBF53890F438910758B66758DFCC20F
:08075D008FD2ABD28ED2AF2285
:10057900EF14B40800505190058E75F003A4C5839B
:1005890025F0C583730205A60205AA0205AE020578
:10059900B20205B60205BD0205C40205CBD2A4808C
:1005A9000ED2A48011D2A48014D2A48017C2A4D2DE
:1005B900A3D2A222C2A4D2A3C2A222C2A4C2A3D2FB
:0905C900A222C2A4C2A3C2A22214
:0300000002038C6C
:0C038C00787FE4F6D8FD7581430203D3AE
:10001E00E88FF0A4CC8BF0A42CFCE98EF0A42CFC81
:10002E008AF0EDA42CFCEA8EF0A4CDA8F08BF0A4FF
:10003E002DCC3825F0FDE98FF0A42CCD35F0FCEB5E
:10004E008EF0A4FEA9F0EB8FF0A4CFC5F02ECD3923
:0F005E00FEE43CFCEAA42DCE35F0FDE43CFC2290
:10006D0075F008758200EF2FFFEE33FECD33CDCC4A
:10007D0033CCC58233C5829BED9AEC99E5829840CD
:10008D000CF582EE9BFEED9AFDEC99FC0FD5F0D6AA
:10009D00E4CEFBE4CDFAE4CCF9A88222B800C1B9D4
:1000AD000059BA002DEC8BF084CFCECDFCE5F0CB12
:1000BD00F97818EF2FFFEE33FEED33FDEC33FCEB4B
:1000CD0033FB10D703994004EB99FB0FD8E5E4F906
:1000DD00FA227818EF2FFFEE33FEED33FDEC33FCF3
:1000ED00C933C910D7059BE99A4007EC9BFCE99AE7
:1000FD00F90FD8E0E4C9FAE4CCFB2275F010EF2F2C
:10010D00FFEE33FEED33FDCC33CCC833C810D7072B
:10011D009BEC9AE899400AED9BFDEC9AFCE899F866
:0E012D000FD5F0DAE4CDFBE4CCFAE4C8F922F9
:10013B00EB9FF5F0EA9E42F0E99D42F0E89C45F01A
:01014B002291
:10014C00EC8EF0A4CCC5F0CCCDF8EFA4CEC5F02D40
:10015C00FDE43CFCE8A42EC8C5F03DFDE43CFCEFFE
:0D016C00A4FFE5F028FEE43DFDE43CFC228C
:100398000206E6E493A3F8E493A34003F68001F28F
:1003A80008DFF48029E493A3F85407240CC8C33366
:1003B800C4540F4420C8834004F456800146F6DF35
:1003C800E4800B0102040810204080900628E47E97
:1003D800019360BCA3FF543F30E509541FFEE4932A
:1003E800A360010ECF54C025E060A840B8E493A3F1
:1003F800FAE493A3F8E493A3C8C582C8CAC583CA1C
:10040800F0A3C8C582C8CAC583CADFE9DEE780BED3
:010673000086
:00000001FF
